:030000000209D31F
:0C09D300787FE4F6D8FD75815E020A1AF8
:100BA50004570000000011082020202020202020CC
:100BB500202020202020202000111A202020205431
:100BC500532D35314120202020202000112B546841
:100BD5006572652773206E6F206563686F2E00113F
:100BE5003C2020202054532D353141202020202029
:0E0BF50020000A4D44697374616E63653A0016
:0F0C7C00C2957F0A7E00120C8BD2957F0A7E00F4
:100C8B00D3EF9400EE940040147D0A7C00ED1D70B0
:0D0C9B00011CED4C70F7EF1F70E61E80E3AA
:010CA8002229
:0A0D7C008F80C293120C7CC29522F6
:030D63002430FF3A
:0A0D66008F80D293120C7CC29522FC
:100C4800C2A7C2A67F38120D7C7F147E00120C8BBF
:100C58007F0F120D7C7F147E00120C8B7F06120D05
:100C68007C7F147E00120C8B7F01120D7C7F147E1A
:040C780000020C8BDF
:100CEE00E4FDFCC3ED9FEC9E5015E4FBFA0BBB003C
:0F0CFE00010AEB64034A70F50DBD00010C80E4A0
:010D0D0022C3
:020D0E008F5BF9
:100D1000E4F9E9C3955B5011C2A27FE87E03120C8F
:090D2000EED2A2120CEE0980E9EA
:010D290022A7
:100D2A00EF1FAA0670011ED39400EA9400400BE458
:0A0D3A00FDEDC3947D50E90D80F734
:010D4400228C
:0E0D5500758901758A66758CFCD2A9D2AF2211
:100D4500D294D2B2E4F519F55AF559F558F557226A
:100CCC00ED2480FF120D7CE4F55B120800FF120D81
:100CDC0066740129F9E43AFA055BE55BC3941040AC
:010CEC00E91E
:010CED0022E4
:060A5F008D5BAB07AA0647
:100A65007C037DE812082B8F5C7C007D64AF03AEB0
:100A75000212082B7C007D0A12082B8D5D7C007DFF
:100A85000AAF03AE0212082B7C007D0A12082B8DDB
:100A95005EAE02AF037C007D0A12082BAB05E55B59
:100AA5002480FF120D7CE55C120D63E55D120D637C
:100AB500E55E2430FF120D667F2E120D66EB2430A5
:0E0AC500FF120D667F63120D667F6D020D66D7
:0C0D7000D2947F017E00120D2AC2942252
:100AD300D28C20B2FDC28CAD8AAF8CEFFE7C00E4D9
:100AE3002DFFEC3EAB07FA749A2BFB74033AFAAF73
:100AF300197E007C037DE8120819EF2BFFEE3AFE06
:100B0300E48F5A8E59F558F557758A66758CFC7FB4
:100B13001EFE120D2AE47FA77E0DFDFCAB5AAA59D7
:100B2300A958A857120861E47B207A4EF9F8120CF1
:090B3300048F5A8E598D588C571D
:010B3C002296
:100B3D00C294120C48120D55120D457F02120D0E66
:100B4D007B007A007908E4FD120CCC7A00791A7DCD
:100B5D0040120CCC7F307E75120CEE7B007A007942
:100B6D003CE4FD120CCC7A00792B7D40120CCC129A
:100B7D000D7030B2FD120AD37B007A00794D7D40A5
:100B8D00120CCCAE59AF5A7D49120A5F120D457F3A
:080B9D00647E00120D2A80D7CE
:03000B00020CA93B
:100CA900C0E0C0D0C28D758A66758CFC0519E5193E
:100CB900B4120BC28C758A66758CFC751900D0D07C
:030CC900D0E03246
:1009DF00020B3DE493A3F8E493A34003F68001F2E6
:1009EF0008DFF48029E493A3F85407240CC8C33319
:1009FF00C4540F4420C8834004F456800146F6DFE8
:100A0F00E4800B0102040810204080900BA5E47EC7
:100A1F00019360BCA3FF543F30E509541FFEE493DC
:100A2F00A360010ECF54C025E060A840B8E493A3A3
:100A3F00FAE493A3F8E493A3C8C582C8CAC583CACE
:100A4F00F0A3C8C582C8CAC583CADFE9DEE780BE86
:010C030000F0
:10080000BB010689828A83E0225002E722BBFE02F6
:09081000E32289828A83E4932229
:10081900EF8DF0A4A8F0CF8CF0A428CE8DF0A42EF3
:02082900FE22AD
:10082B00C2D5EC30E709B2D5E4C39DFDE49CFCEEE8
:10083B0030E715B2D5E4C39FFFE49EFE1208B0C3A8
:10084B00E49DFDE49CFC80031208B030D507C3E4A3
:06085B009FFFE49EFE2257
:10086100E88FF0A4CC8BF0A42CFCE98EF0A42CFC36
:100871008AF0EDA42CFCEA8EF0A4CDA8F08BF0A4B4
:100881002DCC3825F0FDE98FF0A42CCD35F0FCEB13
:100891008EF0A4FEA9F0EB8FF0A4CFC5F02ECD39D8
:0F08A100FEE43CFCEAA42DCE35F0FDE43CFC2245
:100C0400C2D5E830E70FB2D5E4C39BFBE49AFAE41B
:100C140099F9E498F8EC30E717B2D5120C3A1209B6
:100C240041E4C39BFBE49AFAE499F9E498F880035D
:100C340012094130D50DE4C39FFFE49EFEE49DFDFF
:040C4400E49CFC220E
:1008B000BC000BBE0029EF8DF084FFADF022E4CC2C
:1008C000F875F008EF2FFFEE33FEEC33FCEE9DECF5
:1008D000984005FCEE9DFE0FD5F0E9E4CEFD22ED3B
:1008E000F8F5F0EE8420D21CFEADF075F008EF2F85
:1008F000FFED33FD4007985006D5F0F222C398FD76
:050900000FD5F0EA2212
:1009050075F008758200EF2FFFEE33FECD33CDCCA9
:1009150033CCC58233C5829BED9AEC99E58298402C
:100925000CF582EE9BFEED9AFDEC99FC0FD5F0D609
:10093500E4CEFBE4CDFAE4CCF9A88222B800C1B933
:100945000059BA002DEC8BF084CFCECDFCE5F0CB71
:10095500F97818EF2FFFEE33FEED33FDEC33FCEBAA
:1009650033FB10D703994004EB99FB0FD8E5E4F965
:10097500FA227818EF2FFFEE33FEED33FDEC33FC52
:10098500C933C910D7059BE99A4007EC9BFCE99A46
:10099500F90FD8E0E4C9FAE4CCFB2275F010EF2F8B
:1009A500FFEE33FEED33FDCC33CCC833C810D7078B
:1009B5009BEC9AE899400AED9BFDEC9AFCE899F8C6
:0E09C5000FD5F0DAE4CDFBE4CCFAE4C8F92259
:00000001FF
