:1005D6006D637573747564696F2E636F6D2E636ECC
:1005E6000066687778616F6F403136332E636F6DC2
:1005F6002000202020202020202020202020202015
:10060600202000303132333435363738392E2D4DEF
:020616000000E2
:1006DC00010E0002080000040A00000000C1000422
:0506EC000F00000000FA
:100707008F191206F2851980D293C294C295C295A9
:03071700D2952256
:040674007D017C0088
:100678008F19ED4C60031206F2851980C293C2945B
:07068800C295C295D2952234
:0D072900D293D294C295C295D295AF802292
:1006F2007580FFC293D294C295C295D295E58020AF
:05070200E7FBAF8022BF
:10058E00E4F580FDFC7F3812067812071AE4FDFCB4
:10059E007F3812067812071AE4FDFC7F38120678AF
:1005AE0012071A7F381206747F081206747D017CBA
:1005BE00007F011206787D017C007F061206787D91
:0805CE00017C007F0F0206789A
:0A065100900613E493FB7D017F0186
:10065B008B1853050153070FED6003430740430706
:09066B0080120674AF18020707A3
:080618008F138D148A158B1657
:10062000E4F51753140153130FE5162517F582E46B
:100630003515F583E493FBD394194014E513D39453
:100640000F50E6AD14AF1312065B0517051380D9E2
:010650002287
:0E071A007FB07E15EF1FAC0670011E4C70F60E
:0107280022AE
:1006C3007D05AC051DEC60107E1C7F65EF1FAA063F
:0806D30070011E4A60EC80F486
:0106DB0022FC
:10036000AF8CEFFEAD8A7C00E42DF509EC3EF5087C
:10037000E4F58CF58AAC08AD091201B97B9A7A993B
:1003800079D9783F12000EE4FBFA79C8784212015D
:10039000171201F28F0D8E0C8D0B8C0AE47FBC7E40
:1003A00002FDFCAB0DAA0CA90BA80AC312034F5007
:1003B00003300026C200900614E493FB7D01E4FFA5
:1003C00012065B120651900614E493FB7D017F0236
:1003D00012065B900614E4020491E47BE87A03F9C8
:1003E000F8AF0DAE0CAD0BAC0A1202AFAC00AD0114
:1003F000AE02AF03E47B64FAF9F81202AF8F0FE4A8
:100400007BE87A03F9F8AF0DAE0CAD0BAC0A120223
:10041000AFAC00AD01AE02AF03E47B64FAF9F812B1
:1004200002AFAC00AD01AE02AF03E47B0AFAF9F80B
:100430001202AF8F10E47BE87A03F9F8AF0DAE0C2F
:10044000AD0BAC0A1202AFAC00AD01AE02AF03E4DB
:100450007B0AFAF9F81202AFAC00AD01AE02AF03AD
:10046000E47B0AFAF9F81202AFAF038F11E50F909F
:10047000060993FB7D01E4FF12065B120651E510AD
:1004800090060993FB7D017F0212065BE511900641
:100490000993FB7D017F0312065B900615E493FB35
:0804A0007D017F0412065B22BE
:03000B00020003ED
:03000300D20032F6
:10068F00D2A60000000000000000000000000000E3
:0A069F0000000000000000C2A622C7
:1006A9007C64EF4E60131CEC60087D0A1DED60F65A
:0906B90080FAEF1F70EC1E80E9CD
:0106C2002215
:100534001206C312058E12071A7A057BD6E4FDFF54
:100544001206187A057BE77D01E4FF1206181207EC
:1005540029E4FB1206C30BBB0AF97A057BF87D017B
:10056400E4FF120618758901E4F58CF58AD2A9D244
:10057400AF12068F30A7FDD28C20A7FDC28C1203C8
:0A058400607F507E001206A980E798
:10000E00EC4D6011E8497017ED33EC3304600DE4EC
:10001E00FCFFFEFD22E933E8330470F802025E12A3
:10002E00022958046009E4CC2481500628500902A4
:10003E000268284003020265C0E0EB4A7044B980B2
:10004E0006D0E0FB020254EF4E701CBD8008EBFFA1
:10005E00EAFEE9FD80EBE98DF0A4FEE5F00200F783
:10006E00E9CDF9EAFEEBFFEF89F0A4FCE5F0CE89CD
:10007E00F0A42EFFE435F0CD89F0A42DFEE435F08A
:10008E008067EF4E7005BD80D780C3EF8BF0A4ACB8
:10009E00F0EE8BF0A42CFCE435F0F8EF8AF0A42CF3
:1000AE00E5F038FCE433CB8DF0A42CFCE5F03BF806
:1000BE00EE8AF0A42CFCE5F038F8E433CF89F0A4F6
:1000CE002CFCE5F038CF3400CE89F0A42FFFE5F0FC
:1000DE003EFEE433C98DF0A42EFEE5F039CD8AF054
:1000EE00A42FFFE5F03EFEE43DFD33D0E0FB5007CC
:1000FE000BBB000F020268EC2CFCEF33FFEE33FE5D
:06010E00ED33FD0202408A
:10011400020268EC5D046005E85904700302025EA3
:10012400120229580460F6EC4860F2EC7004FDFEFB
:10013400FF22C860DB2481C85009C39860025006BE
:100144000202659850CAF582E9294B4A7005AB82D0
:1001540002025475F0007C1A7880C3EF9BEE9AED8E
:1001640099400DC3EF9BFFEE9AFEED99FDE842F036
:10017400DC23ACF0D0E0FFD0E0FED0E0FDAB822089
:10018400E7101BEB60BAEC2CFCEF33FFEE33FEED13
:1001940033FD020240E803F830E705C0F075F000D3
:1001A400EF2FFFEE33FEED33FD40B830E7C280AAF7
:1001B40075F020800E75F010800575F0087D007EC6
:1001C400007F003392D530D503120341EC33401045
:1001D400EF33FFEE33FEED33FDEC33FCD5F0ED22CF
:0E01E400E5F0247EA2D513CC92E7CDCEFF220B
:1001F200EDD2E7CD33EC3392D524814006E4FFFE05
:10020200FDFC22FCE4CFCECDCC24E0501174FF8063
:10021200EDC3CC13CCCD13CDCE13CECF13CF047000
:07022200F030D5DE020341BC
:10022900E9D2E7C933E833F892D5EDD2E7CD33EC1B
:0702390033FC5002B2D52294
:10024000EC30E7100FBF000C0EBE00080DBD00041F
:100250000BEB6014A2D5EB13FCED92E7FD2274FFCB
:10026000FCFDFEFF22E480F8A2D574FF13FC7D8024
:03027000E480EF38
:030000000204A84F
:0C04A800787FE4F6D8FD7581200204EF97
:1002730075F008758200EF2FFFEE33FECD33CDCC42
:1002830033CCC58233C5829BED9AEC99E5829840C5
:100293000CF582EE9BFEED9AFDEC99FC0FD5F0D6A2
:1002A300E4CEFBE4CDFAE4CCF9A88222B800C1B9CC
:1002B3000059BA002DEC8BF084CFCECDFCE5F0CB0A
:1002C300F97818EF2FFFEE33FEED33FDEC33FCEB43
:1002D30033FB10D703994004EB99FB0FD8E5E4F9FE
:1002E300FA227818EF2FFFEE33FEED33FDEC33FCEB
:1002F300C933C910D7059BE99A4007EC9BFCE99ADF
:10030300F90FD8E0E4C9FAE4CCFB2275F010EF2F23
:10031300FFEE33FEED33FDCC33CCC833C810D70723
:100323009BEC9AE899400AED9BFDEC9AFCE899F85E
:0E0333000FD5F0DAE4CDFBE4CCFAE4C8F922F1
:0E034100C3E49FFFE49EFEE49DFDE49CFC22CD
:10034F00EB9FF5F0EA9E42F0E99D42F0E89C45F004
:01035F00227B
:1004B400020534E493A3F8E493A34003F68001F225
:1004C40008DFF48029E493A3F85407240CC8C33349
:1004D400C4540F4420C8834004F456800146F6DF18
:1004E400E4800B01020408102040809006DCE47EC6
:1004F400019360BCA3FF543F30E509541FFEE4930D
:10050400A360010ECF54C025E060A840B8E493A3D3
:10051400FAE493A3F8E493A3C8C582C8CAC583CAFE
:10052400F0A3C8C582C8CAC583CADFE9DEE780BEB6
:0106F1000008
:00000001FF
