:100D500002260000022400000128000429000000EF
:100D600000C1000C2DC0F9A4B0999282F88090BF08
:0C0D7000FF0321DFEFF704390000000052
:100D1B00E528701074392528F8E6242DF8E6547F61
:100D2B00F590800C74392528F8E6242DF8E6F5901B
:100D3B0074212528F8E6F5A00528E528C39403407F
:050D4B0003E4F528227D
:100B5200AF8CEFFEAD8A7C00E42DF527EC3EF52646
:100B6200E4F58CF58AAC26AD271209AB7B9A7A990B
:100B720079D9783F120800E4FBFA79C87842120961
:100B8200091209E48F2C8E2B8D2A8C29E47FBC7EDE
:100B920002FDFCAB2CAA2BA92AA829C3120B415097
:100BA2000330000CC20075390A753A0A753B0A22F5
:100BB200E47BE87A03F9F8AF2CAE2BAD2AAC29120C
:100BC2000AA1AC00AD01AE02AF03E47B64FAF9F80E
:100BD200120AA18F39E47BE87A03F9F8AF2CAE2B25
:100BE200AD2AAC29120AA1AC00AD01AE02AF03E4FA
:100BF2007B64FAF9F8120AA1AC00AD01AE02AF03B0
:100C0200E47B0AFAF9F8120AA18F3AE47BE87A0344
:100C1200F9F8AF2CAE2BAD2AAC29120AA1AC00AD6B
:100C220001AE02AF03E47B0AFAF9F8120AA1AC00A2
:100C3200AD01AE02AF03E47B0AFAF9F8120AA1AFE2
:040C4200038F3B22BF
:03000B00020DA241
:030DA200D200324A
:03001B00020CD202
:100CD200C0E0C0D075D000C000758DF8758B3012A1
:100CE2000D1B0525E52570020524C39490E5249487
:100CF20001401F752400752500D28200000000000B
:100D020000000000000000000000000000000000E1
:090D1200C282D000D0D0D0E03242
:100D7D00758911E4F58CF58A758DF8758B30D2A9CE
:100D8D00D2ABD28ED2AF3081FDD28C2081FDC28C00
:050D9D00120B5280F171
:10080000EC4D6011E8497017ED33EC3304600DE4F2
:10081000FCFFFEFD22E933E8330470F8020A5012AF
:100820000A1B58046009E4CC2481500628500902B0
:100830000A5A284003020A57C0E0EB4A7044B980C4
:1008400006D0E0FB020A46EF4E701CBD8008EBFFAD
:10085000EAFEE9FD80EBE98DF0A4FEE5F00208E98F
:10086000E9CDF9EAFEEBFFEF89F0A4FCE5F0CE89D3
:10087000F0A42EFFE435F0CD89F0A42DFEE435F090
:100880008067EF4E7005BD80D780C3EF8BF0A4ACBE
:10089000F0EE8BF0A42CFCE435F0F8EF8AF0A42CF9
:1008A000E5F038FCE433CB8DF0A42CFCE5F03BF80C
:1008B000EE8AF0A42CFCE5F038F8E433CF89F0A4FC
:1008C0002CFCE5F038CF3400CE89F0A42FFFE5F002
:1008D0003EFEE433C98DF0A42EFEE5F039CD8AF05A
:1008E000A42FFFE5F03EFEE43DFD33D0E0FB5007D2
:1008F0000BBB000F020A5AEC2CFCEF33FFEE33FE69
:06090000ED33FD020A3296
:10090600020A5AEC5D046005E859047003020A50B5
:10091600120A1B580460F6EC4860F2EC7004FDFE07
:10092600FF22C860DB2481C85009C39860025006C4
:10093600020A579850CAF582E9294B4A7005AB82DC
:10094600020A4675F0007C1A7880C3EF9BEE9AED9A
:1009560099400DC3EF9BFFEE9AFEED99FDE842F03C
:10096600DC23ACF0D0E0FFD0E0FED0E0FDAB82208F
:10097600E7101BEB60BAEC2CFCEF33FFEE33FEED19
:1009860033FD020A32E803F830E705C0F075F000DF
:10099600EF2FFFEE33FEED33FD40B830E7C280AAFD
:1009A60075F020800E75F010800575F0087D007ECC
:1009B600007F003392D530D503120B33EC33401051
:1009C600EF33FFEE33FEED33FDEC33FCD5F0ED22D5
:0E09D600E5F0247EA2D513CC92E7CDCEFF2211
:1009E400EDD2E7CD33EC3392D524814006E4FFFE0B
:1009F400FDFC22FCE4CFCECDCC24E0501174FF806A
:100A0400EDC3CC13CCCD13CDCE13CECF13CF047006
:070A1400F030D5DE020B33C8
:100A1B00E9D2E7C933E833F892D5EDD2E7CD33EC21
:070A2B0033FC5002B2D5229A
:100A3200EC30E7100FBF000C0EBE00080DBD000425
:100A42000BEB6014A2D5EB13FCED92E7FD2274FFD1
:100A5200FCFDFEFF22E480F8A2D574FF13FC7D802A
:030A6200E480EF3E
:03000000020C46A9
:0C0C4600787FE4F6D8FD75813C020C8D2F
:100A650075F008758200EF2FFFEE33FECD33CDCC48
:100A750033CCC58233C5829BED9AEC99E5829840CB
:100A85000CF582EE9BFEED9AFDEC99FC0FD5F0D6A8
:100A9500E4CEFBE4CDFAE4CCF9A88222B800C1B9D2
:100AA5000059BA002DEC8BF084CFCECDFCE5F0CB10
:100AB500F97818EF2FFFEE33FEED33FDEC33FCEB49
:100AC50033FB10D703994004EB99FB0FD8E5E4F904
:100AD500FA227818EF2FFFEE33FEED33FDEC33FCF1
:100AE500C933C910D7059BE99A4007EC9BFCE99AE5
:100AF500F90FD8E0E4C9FAE4CCFB2275F010EF2F2A
:100B0500FFEE33FEED33FDCC33CCC833C810D70729
:100B15009BEC9AE899400AED9BFDEC9AFCE899F864
:0E0B25000FD5F0DAE4CDFBE4CCFAE4C8F922F7
:0E0B3300C3E49FFFE49EFEE49DFDE49CFC22D3
:100B4100EB9FF5F0EA9E42F0E99D42F0E89C45F00A
:010B51002281
:100C5200020D7DE493A3F8E493A34003F68001F22E
:100C620008DFF48029E493A3F85407240CC8C333A3
:100C7200C4540F4420C8834004F456800146F6DF72
:100C8200E4800B0102040810204080900D50E47EA5
:100C9200019360BCA3FF543F30E509541FFEE49367
:100CA200A360010ECF54C025E060A840B8E493A32E
:100CB200FAE493A3F8E493A3C8C582C8CAC583CA59
:100CC200F0A3C8C582C8CAC583CADFE9DEE780BE11
:010D7C000076
:00000001FF
