:020000040800F2
:10000000780800203502000845310008C32E00089A
:1000100015310008671B00089D370008000000002C
:10002000000000000000000000000000793400081B
:10003000691B0008000000007D3300087B340008C5
:100040004F0200084F0200084F0200084F0200084C
:100050004F0200084F0200084F0200084F0200083C
:100060004F0200084F0200084F0200084F0200082C
:100070004F0200084F0200084F0200084F0200081C
:100080004F0200084F0200084F0200084F0200080C
:100090004F0200084F0200084F0200084F020008FC
:1000A0004F0200084F0200084F0200084F020008EC
:1000B000E13400084F0200084F0200084F02000818
:1000C0004F0200084F0200084F0200084F020008CC
:1000D0004F0200084F0200084F0200084F020008BC
:1000E0004F0200084F0200084F02000800F002F81B
:1000F00000F090F80AA090E8000C82448344AAF132
:100100000107DA4501D100F085F8AFF2090EBAE82F
:100110000F0013F0010F18BFFB1A43F0010318473B
:100120006839000088390000103A24BF78C878C1C7
:10013000FAD8520724BF30C830C144BF04680C60ED
:10014000704700000023002400250026103A28BF35
:1001500078C1FBD8520728BF30C148BF0B60704739
:100160006E2900F02F82702900F08985662903F03E
:10017000ED83652903F0EA83672903F0E7836129AA
:1001800003F0E68303681B0A28BF41F08001692958
:1001900000F0DC81642900F0D981752900F0D68156
:1001A0006F2900F01685782900F05585E92900F0BF
:1001B000B184E42900F0AE84F52900F0AB84EF2986
:1001C00000F01385F82900F054850368DB0928BF87
:1001D00041F08001632900F0C787732900F0CC87C4
:1001E000E32900F0D787F32900F0DC87002070476F
:1001F0001FB500F04FFD04000020002103F090FB2C
:10020000401C60600020002103F074FBE0601FBD13
:1002100010B510BD01F060F81146FFF7E9FF03F0DB
:1002200007FB01F087F803B4FFF7F2FF03BC01F00E
:10023000CBF800000948804709480047FEE7FEE781
:10024000FEE7FEE7FEE7FEE7FEE7FEE7FEE7FEE786
:1002500004480549054A064B70470000DD34000894
:10026000ED000008780200207808002078040020C3
:10027000780400207CB51D4616460C00009001D085
:100280002044401E074B7B442A4669460190304675
:1002900000F0C1FB05461CB10020694600F0CEFB12
:1002A00028467CBDBD07000070B50446856900681E
:1002B000C10601D5302600E02026C00707D070BD5A
:1002C000D4E9012130469047206A401C20626D1E0F
:1002D000F6D570BD70B5044685690078C00707D1B2
:1002E00070BDD4E9012120209047206A401C206283
:1002F0006D1EF6D570BD00002DE9F05F89460446FD
:100300004FF0000ADFF874B1FB44C0F820A020468B
:10031000E1688847002874D0252806D0D4E9012157
:100320009047206A401C2062F1E700265F46204685
:10033000E16888472028054607DB312D05D278196A
:1003400010F8200C08B10643F1E7B00701D526F0FC
:100350000406C4F81CA00027C4F818A02A2D09D050
:10036000284603F040FA38B304EB8708303DC8F85C
:10037000185019E059F8041B204604EB87029161DC
:10038000E1688847012F054618D1E069002820DA86
:1003900026F020061DE0D8F8180000EB800005EBE1
:1003A00040003038C8F818002046E1688847054604
:1003B00003F019FA0028EED1012F0AD02E2D08D112
:1003C0002046E16888477F1C0546022F46F020063C
:1003D000C4DBA069002803DA404246F00106A061B0
:1003E000F00701D026F010066C2D0BD0682D09D037
:1003F0004C2D39D06A2D35D0742D35D07A2D33D08F
:1004000016E038E0E1682F4620468847B8420546A6
:1004100009D16C2F26D04FF48060E1680643204656
:100420008847054604E06C2F1AD04FF480700643CD
:100430000DB3A5F14100192802D8203546F4006615
:100440004A462946204626604E46FFF789FE80B17F
:1004500001280BD0F61D26F0070000F1080956E729
:100460004020E4E78020D8E70020D6E706F1040921
:100470004DE7284652E7206ABDE8F09F7C36000031
:100480004FF0000200B5134694469646203922BF2D
:10049000A0E80C50A0E80C50B1F12001BFF4F7AF78
:1004A000090728BFA0E80C5048BF0CC05DF804EB5A
:1004B000890028BF40F8042B08BF704748BF20F8C8
:1004C000022B11F0804F18BF00F8012B70477047C6
:1004D0007047704709684A0501D540B27047C905A1
:1004E000FCD500B2704709684A0501D5C0B2704713
:1004F000C905FCD580B2704770B50C460546012A87
:1005000005D02878800600D5EA69002302E001239F
:1005100005E05B1C934202D2E05C0028F9D1A86997
:10052000E618C01AA861286A184428622846FFF70E
:10053000BBFE04E0D5E9012114F8010B9047B44259
:10054000F8D32846FFF7C6FE70BD00002DE9F04144
:100550000646002410687529314616A510D0FFF70D
:10056000B9FF002802DA404213A507E031688A0784
:1005700001D512A502E0490704D511A5012401E027
:10058000FFF7B1FF00210A2206F1240709E0B0FBC2
:10059000F2FCB0FBF2F302FB1C003030785418463A
:1005A000491C0028F3D123462A463046BDE8F041D5
:1005B00000F0B9BB000000002D0000002B0000007F
:1005C0002000000011680268006A530501D5087018
:1005D0000AE0D30501D5088006E0130603D5C2174B
:1005E000C1E9000200E008600120704770472DE972
:1005F000FF4F0C461E464FF0FF378BB0D2E900018B
:10060000DDF860800A908A46C1F30A5505B93D4677
:10061000002108464FF00000BAF1000F00F440003E
:1006200005DA00EB80004FF4400101EA50004FEA88
:100630009059B9F1010F00DDB9460A9850EA4A0015
:100640000ED044F61050A5F2FF3545432F14B8F1F3
:10065000000F1ED07542291E1EDDC9F100021CE0EC
:10066000B8F1010F4FF0000001D0302103E0F24358
:1006700005E02154401CB042FBDB30460022002143
:1006800021540B99C1F80880C1E900200FB0BDE8E2
:10069000F08FBD1B6D1CDEE74A4600DA694206A8F2
:1006A00000F084FD06AB93E8070003AB83E8070086
:1006B00050460A9900F08FFE8DE80700A0F5005023
:1006C0001F3800900398002D0ADD42F21F014A46B0
:1006D0000844002303A90390684601F0F8F809E0F4
:1006E000A0F500504A461F38002303A9039068462E
:1006F00001F002F98DE807000004000C03D04FF070
:10070000FF30410800E01046B8F1000F03D000228E
:10071000009215461EE0751E05D400F0BFFA303277
:1007200062556D1EF9D5B3460122084302D000225E
:100730007F1C04E02078302801D100227F1E002A8F
:10074000099784D01DE0112D07DA00F0A7FA3032A6
:1007500062556D1C50EA0102F5D1084302D00098A1
:10076000C8B10EE00021681E05E0235C625C6354A2
:100770002254401E491C8142F7DBAB46A81B401E99
:100780000990002004F80B000B98099AC0F8088023
:10079000C0E9002B7AE711264FF0000857E72DE952
:1007A000F04F88460446D21D22F0070191B0D1E9EE
:1007B0000001CDE90A0102F0F2FF02460B98C00FDA
:1007C00001D02D2007E02068810701D52B2002E011
:1007D000202101EAC000032A099001D0072A05DB85
:1007E00003464146204600F075FC0BE12078800668
:1007F00001D5E06900E00620B8F1650F814606D01A
:10080000B8F1660F18D0B8F1670F70D131E0002051
:10081000B9F1110F009001DB112301E009F101038F
:100820000AAA01A90CA8FFF7E2FEDDE90C70002678
:1008300009F10105834647E001204B4600904FF047
:1008400000470AAA01A90CA8FFF7D1FEDDE90DB007
:100850000C995D46002610B909F101000D18B9EB9D
:10086000050003D4C0F1FF3609F10105A5EB09002D
:100870002BE0B9F1010F01DA4FF001090020B9F1C5
:10088000110F0090484601DD112300E003460AAA3B
:1008900001A90CA8FFF7ABFEDDE90C704D46002660
:1008A0008346207800070AD4AB4500DA5D4601A8EC
:1008B000012D04DD411911F8011C302907D04F45E5
:1008C00002DA17F1040F04DA012082460FE06D1EF0
:1008D000EEE7002F02DCED1B3E4403E0781CA8424B
:1008E00000DD7D1CB81B00F1010A4FF000472078A5
:1008F000000703D4AA4501DB4FF0FF3A0021B7F10E
:10090000004F0DF143088DF8431024D002202B2313
:10091000002F01DA7F422D230A21021EA0F10100DF
:1009200000DC5FB197FBF1FC97FBF1F201FB1C7C53
:1009300017460CF1300C08F801CDEEE7A8F10100E4
:1009400003702188090501D5452100E06521A0F14A
:10095000010800F8011C09980FA9A1EB0807FF1D69
:1009600000B10120411901EBEA70A1693844081A6D
:10097000401EA0612078C00602D42046FFF794FCF8
:10098000099828B1D4E901219047206A401C2062CF
:100990002078C00622D52046FFF786FC1EE0002EF8
:1009A00004DBB34502DD01A8805D00E03020D4E91E
:1009B00001219047206A401C2062761CAAF10100A8
:1009C0005FEA000A0AD100F065F9C0680168405C7E
:1009D000D4E901219047206A401C2062281EA5F11D
:1009E0000105DCDC07E0D4E9012118F8010B904790
:1009F000206A401C2062381EA7F10107F3DC204664
:100A0000FFF768FC032011B041E6000001694A1CB1
:100A100002610878704700B58FB0CDE9013100213F
:100A2000059105497944CDE9031011466846FFF761
:100A300063FC0FB000BD0000E5FFFFFF0A6802F88D
:100A4000010B0A607047D1E900239A4202D2531C7D
:100A50000B601070704700002DE9FF5F15468A4655
:100A60000446DFF8AC80F8440027D8E900103E4681
:100A7000CDE9001010E03AF816106A4602A800F01E
:100A800007FC411C07D02178890603D5E269391893
:100A900091420DD80744761C2078800602D5E06983
:100AA000B84205DDAE42E6DB3AF816000028E2D196
:100AB000A069C01BA0612046FFF7F6FBD8E9001033
:100AC000CDE90010002017E03AF818106A4602A895
:100AD00000F0DEFBB0F1FF3F81460BD000250DF1A9
:100AE000080B05E0D4E901211BF8050090476D1CB7
:100AF0004D45F7D308F10100B0428046E4DB206A9F
:100B0000384420622046FFF7E5FBBDE8FF9F000068
:100B1000322F00002DE9F0418046D21D22F007025D
:100B20000025D2E90002F52915A614D0011E72F1A4
:100B3000000106DA0023D0EB030063EB020211A6EA
:100B400008E0D8F800108B0701D50FA602E049078E
:100B500001D50EA601251146002408F1240704E062
:100B600000F09CF830323A55641C50EA0102F7D18B
:100B70002B46324621464046BDE8F04100F0D3B84E
:100B8000000000002D0000002B00000020000000ED
:100B900030B4002100F1240408E002F00705D20877
:100BA000303542EA4372DB086554491C52EA0305BA
:100BB000F3D10468002310A2250707D5A40600D4AA
:100BC00021B1C46901230DA2641EC46130BC00F0D0
:100BD000AAB810B5044621461068FFF784FC024607
:100BE0002046BDE810400023D2E7D21D22F00701C5
:100BF000D1E90023CCE70000000000003000000035
:100C0000F0B40D460188090502D5214C7C4402E070
:100C10001F4C7C440E34002100F1240608E002F051
:100C20000F071209E75D42EA03721B097754491C5A
:100C300052EA0307F3D102780023120704D5702D7E
:100C400006D009B1022311342246F0BC00F06BB883
:100C500001231034F8E770B504460D4621461068AC
:100C6000FFF741FC024629462046BDE870400023BC
:100C7000C6E7D21D22F00703D3E90023C0E70368CB
:100C8000126843F0200303600823C3610023B7E721
:100C9000942D0000004870473402002030B5B0F1B8
:100CA0000A024FEA900E71F100034EEA817EB0EB2A
:100CB0000E0061EB91014FEA101E4EEA017E10EB2F
:100CC0000E0041EB11114FEA102E4EEA016E10EBAF
:100CD0000E0041EB11214FEA104E4EEA014E10EB8F
:100CE0000E0041EB1141401841F100014FEAD000E4
:100CF00040EA41704FEAD10110EB80054FEA8104D0
:100D000044EA907444EB01046D1944EB0404521B53
:100D1000A3414FF0000348BF0A3200D530BD401C4C
:100D200041F1000130BD2DE9F0470D46994692464C
:100D3000044600F124080168880604D5E06921F022
:100D40001001216000E00120A84201DD471B00E006
:100D50000027A1697A1902EB0900081AA06120781E
:100D6000C00602D42046FFF79FFA002608E0D4E927
:100D700001211AF806009047206A401C761C206268
:100D80004E45F4DB2078C0060AD52046FFF78CFAE2
:100D900006E0D4E9012130209047206A401C2062FF
:100DA000381EA7F10107F4DC07E0D4E9012118F8A7
:100DB00005009047206A401C2062281EA5F101050D
:100DC000F3DC2046FFF786FA2078000602D50220E1
:100DD000BDE8F0870120FBE72DE9F04F04460D4602
:100DE000D21D22F0070089B0D0E900974846394665
:100DF00002F0D5FC0246F80F01D02D2307E0206851
:100E0000810701D52B2302E0202101EAC0038DF8E0
:100E100020300BB1012000E00020032A824601D0DF
:100E2000072A04DB2946204600F054F93FE12078E8
:100E3000800601D40D2500E0E569C7F30A560D2DA3
:100E400049DA00214FEA175B08464FF00000002FF7
:100E500000F4400007DA00EB80004FF4400100EBA3
:100E6000D07001EA60008115012901DD4FF0FF31EA
:100E700000224FEA850CBCF1180F06D31346ACF1E3
:100E800018004FF08052C24003E04FF4801323FA61
:100E90000CF30CF10C0CBCF1200F04D3ACF1200CC2
:100EA00009FA0CF001E007FA0CF000294FF00048B5
:100EB00001DD18B90FE00ED140450CD319EB020942
:100EC0005F4121B9404502D19F4329EA0209BBEBAA
:100ED000175F00D0761C2088000502D57B48784437
:100EE00002E07A487844193808AA302302F80A3018
:100EF000037C0AF10101002E0AF1020A53546A46EA
:100F000002DC4FF0300101E04FF031014FF00108F9
:100F10008DF8001002D0A6F2FF3603E059EA47012F
:100F200000D06B4E002D02DC2178090704D54FF06C
:100F300002082E218DF80110C44600210BE0C7F3F2
:100F400003433F01C35C491C6D1E02F808300529AC
:100F500008F1010801DA002DF1DC00210CE000EBC2
:100F60001973491C1B786D1E082902F808304FEAD6
:100F7000091908F1010801DA002DF0DC21688B065F
:100F800002D516E0A8F10108E04505DD02EB0803F3
:100F900013F8013C302BF5D0B8F1000F09DD02EB5E
:100FA000080313F8013C2E2B03D1090701D4A8F143
:100FB0000108002D05DD3E2102F808106D1E08F124
:100FC0000108407C002E02F8080008F1010804DA4C
:100FD0002D20764202F8080002E02B2002F80800DB
:100FE0000A214FF47A70864208F101080BDB96FB68
:100FF000F0F3303302F8083096FBF0F308F1010803
:1010000000FB136601E0642E0CDB642096FBF0F31A
:10101000303302F8083096FBF0F308F1010800FBCA
:10102000136601E00A2E06DB96FBF1F0303002F881
:10103000080008F1010896FBF1F001FB1060303068
:1010400002F80800A16908F1010808EB050202EBAB
:101050000A00081AA0612078C00602D42046FFF7D3
:1010600023F9216A08AE01EB0A00206204E0D4E90A
:10107000012116F8010B9047BAF1010AF7D2207846
:10108000C00602D52046FFF70FF96E4609E016F8B4
:10109000010B3E280FD0D4E901219047206A401C63
:1010A0002062B8F10108F2D22046FFF713F909B027
:1010B0000320BDE8F08F206A2844206203E0D4E9D1
:1010C0000121302090476D1EEBD3F8E7FD2A000088
:1010D00002FCFFFF2DE9F0411F460446032601688C
:1010E000072A01F4006004DB08B116A505E016A587
:1010F00003E008B115A500E015A521F0100020605F
:10110000A069C01EA0610FB1401EA0612046FFF77C
:10111000CBF84FB1D4E9012138469047206A401CF2
:101120002062C01C206206E0206AFAE7D4E90121AF
:1011300015F8010B9047761EF8D22046FFF7CAF843
:10114000BDE8F0814E414E006E616E00494E460092
:10115000696E660010B5436913B1AFF3008001E01A
:10116000FFF7CAF9012010BD127800F124010A70BE
:1011700000224A700122EDE711684FF0FF32E9E7E3
:1011800010B5436913B1AFF3008001E0FFF764FCD1
:10119000012010BD128800F1240182840022C28443
:1011A0000122EDE711684FF0FF32E9E72DE9F04742
:1011B000814616468AB0354878440DC88DE80D0042
:1011C00032487844801C03AC0DC884E80D0041F619
:1011D0009B300844372190FBF1F290FBF1F5A5F12B
:1011E000800501FB12041B3C02D56442012000E093
:1011F0000020DFF898A080460027FA44AAF1BE0A32
:101200000EE0E0070AD03246684607EB47010123AB
:101210000AEB810100F070FB8DE8070064107F1C71
:10122000002CEED1194F7F44AE3F19E0E80715D0EE
:1012300007EB04100DF1180A90E80E008AE80E0082
:10124000C068F04201D1981908903246012306A9DE
:1012500003A800F051FB03AB83E807006D10641C8A
:10126000002DE3D14FF0010332466946B8F1000F7B
:1012700003A802D000F02BFB01E000F03DFBC9E920
:101280000001C9F808200AB0BDE8F087B4280000C2
:1012900070B516460C46054600F044F8036893F80E
:1012A0000101012806D0FF2C0FD8185D68B101207C
:1012B0002C7070BDD3F807013246214603F20713A4
:1012C00003442846BDE8704018474FF0FF3070BD1A
:1012D00000487047140200207546FFF7F9FFAE463C
:1012E00005006946534620F00700854618B020B532
:1012F000FEF7AEFFBDE820404FF000064FF00007BC
:101300004FF000084FF0000B21F00701AC46ACE8AD
:10131000C009ACE8C009ACE8C009ACE8C0098D461A
:101320007047000010B5FFF7B5FC001D10BD00BFF1
:10133000F125000010B50446AFF300802046BDE85B
:101340001040FEF770BF00004FF0013C50F8042B36
:1013500051F8043B9A4221D1A2EB0C03934313EAC8
:10136000CC1317D150F8042B51F8043B9A4215D1F5
:10137000A2EB0C03934313EACC130BD150F8042BCC
:1013800051F8043B9A4209D1A2EB0C03934313EAB0
:10139000CC13DBD04FF00000704700BFD01A01BA69
:1013A000B1FA81F101F0180122FA01F0CB40C1F14C
:1013B0002001DBB2C0B2C01A2CFA01F3D11A91435A
:1013C00011EAC311E6D1704701491820ABBEFEE710
:1013D0002600020070475FEA400C08BF91F0000F42
:1013E0004FEA8C234FEAC12243EA51514FEA1C5085
:1013F00018BF00F5F0404FEA300018BF41F000413F
:101400005FEA6C5C00F02980BCF1FF3F08BF40F050
:1014100080407047130C06BF12044FF0100C4FF0C1
:10142000000C130E04BF12020CF1080C130F04BFC2
:1014300012010CF1040C930F04BF92000CF1020C8A
:10144000D30F04BF52000CF1010C11464FF0000203
:10145000A0F11F00A0EB0C00704711F0004F08BF77
:10146000704731F000413FF4D5AF0B0C06BF0904C3
:101470004FF0100C4FF0000C0B0E04BF09020CF1E2
:10148000080C0B0F04BF09010CF1040C8B0F04BFF7
:1014900089000CF1020CCB0F04BF49000CF1010CC8
:1014A000CCF12003A0EB0C0022FA03F302FA0CF2B9
:1014B00041EA030100F10100704720F07F4C80EA0F
:1014C000030023F07F47ACEB070303F57C5300F0E8
:1014D000004003F1FF032DE980494FEA154B09B4A1
:1014E0004FEA144325EA0B4E24EA03480FF2042680
:1014F00006EB132749083E785FEA320203FB0667D2
:10150000C7F5000707FB06F64FEA54374FEAD64601
:1015100006F1020607FB066CCCF1005C4FEA1C47A3
:101520002CEA074C07FB06F40CFB06F504EB15460A
:101530004FEA961634BF00204FF000404FEAD137F3
:1015400006FB07FC4FEA1C4C0CFB0BF7D21B03FB02
:101550000CF761EB07010CFB0EF7B0EB074072EBE9
:1015600017420CFB08F734BFA2EB0742B2EB07426D
:1015700061EB17414FEA0C444FEA910706FB07FC69
:101580004FEA1C4C0CFB0BF7B0EBC74072EB573229
:1015900003FB0CF734BFA2EBC742B2EBC74261EBCF
:1015A00057310CFB0EF7B0EBC70072EB57720CFB18
:1015B00008F734BFA2EBC702B2EBC70261EB577169
:1015C000039F4FEA816141EA921104EBCC044FEA98
:1015D000D1374FEA826206FB07FC42EA90124FEADB
:1015E00080604FEA1C4C0CFB0BF7D21B03FB0CF783
:1015F00061EB07010CFB0EF7B0EB074072EB1742F3
:101600000CFB08F734BFA2EB0742B2EB074261EBD9
:1016100017414FEA8C554FEA910704EB9C2406FBD7
:1016200007FC4FEA1C4C0CFB0BF7B0EBC74072EB0E
:10163000573203FB0CF734BFA2EBC742B2EBC742F1
:1016400061EB57310CFB0EF7B0EBC70072EB577232
:101650000CFB08F734BFA2EBC702B2EBC70261EB89
:10166000577115EB4C254FEA816141EA92114FEA1F
:1016700082624FEAD13742EA901206FB07FC44F13E
:1016800000044FEA80604FEA1C4C0CFB0BF7D21BA6
:1016900003FB0CF761EB07010CFB0EF7B0EB074007
:1016A00072EB17420CFB08F734BFA2EB0742B2EB18
:1016B000074261EB174115EB1C154FEA813141EAF6
:1016C00092414FEA823242EA90424FEA80304FEA3A
:1016D0000C7644F1000448EA03434EEA0B484FF00D
:1016E000000EB2EB080C71EB030724BF62463946CB
:1016F0004EEB0E0E4FF0000B0018524149414BEBE0
:101700000B0BB2EB080C71EB03077BF1000B24BF52
:10171000624639464EEB0E0E4FF0000B0018524158
:1017200049414BEB0B0BB2EB080C71EB03077BF160
:10173000000B24BF624639464EEB0E0E51EA0207FB
:1017400018BF46F0010616EB0E7655F1000254F173
:10175000000103D5BDE88901BDE80088BDE8890125
:10176000BDE80048B619524141EB0101A3F1010364
:10177000704780807F7E7D7C7B7A797877767675FE
:101780007473727171706F6E6E6D6C6C6B6A6A6976
:101790006868676666656464636362616160605F10
:1017A0005F5E5E5D5D5C5C5B5B5A5A595958585789
:1017B00057565655555554545353525252515150F1
:1017C00050504F4F4F4E4E4D4D4D4C4C4C4B4B4B44
:1017D0004A4A4A494949484848474747474646468A
:1017E00045454544444444434343434242424241C5
:1017F0004141002B9C4630D477002BD01CB54FEADA
:10180000370703B44FF010004FF01001BAF1000F8A
:1018100006D0BCF1000FDCBF40F0080040F008012A
:101820004FF000000FBCBDE810400BF1010BBBF105
:10183000010F08BF5FEA170722BF12F1010211F181
:1018400001014FF0004143F1000300F0004043EA82
:1018500000007047F9D35708D0E746EA064613F16F
:10186000400F4FEA16461FDD13F1200FDFBF16436E
:101870000A46002120335B42BED0C3F1200746EA6E
:10188000064602FA07F74FEA164646EA0706C3F18C
:10189000200722FA03F201FA07F721FA03F14FF0C9
:1018A000000342EA0702A7E746EA020646EA0646BE
:1018B0004FEA164646EA0106BCBF46EA0646360C23
:1018C0004FF000034FF000024FF0000194E72DE9C4
:1018D000804C9A46934670B491E8380007C831EAC4
:1018E000400C48BF34EA430C03D5FFF7E6FDFFF791
:1018F00080FFF0BCBDE8008C2DE9804C9A469346F1
:1019000070B491E8380007C810F0804F08BF13F09A
:10191000804F03D100F005F8FFF76BFFF0BCBDE886
:10192000008C20F07F4780EA030023F07F4C07EB18
:101930000C03A3F57C5300F00040A3F1FE0392F0EA
:10194000000F00F0B38095F0000F00F077802DE9D4
:1019500001494FEA11404FEA144621EA004800FBD2
:1019600006FC24EA064708FB06F607FB08F800FB1E
:1019700007F718EB06484CEB164C4FEA124B18EBE6
:1019800007484FEA15464CEB174022EA0B4E0BFB7B
:1019900006FC25EA06470EFB06F607FB0EFE0BFBD0
:1019A00007F71EEB064E4CEB164C4FF000061EEBF5
:1019B000074E4CEB174B18EB0B0840F1000018EBEF
:1019C0000E0B58EB000840F100008F1A4FF0000199
:1019D0003CBFC943661B14BFB5EB040C00213CBFE0
:1019E000C943F61B4FEA17444EEA8E0E27EA044518
:1019F0004FEA1C4704FB07622CEA074C05FB07F77C
:101A00000CFB05F604FB0CFC16EB074642EB1742F9
:101A100016EB0C4642EB1C421BEB060658EB02028F
:101A2000414146EA9E0601D5BDE80189B6195241F9
:101A300041EB0101A3F10103BDE801894FEA14451F
:101A40004FEA114724EA054621EA074C05FB07F453
:101A500006FB07F70CFB06F105FB0CFC11EB07413D
:101A600044EB17444FEA124711EB0C4144EB1C4482
:101A700022EA074C05FB07F206FB07F70CFB06F60C
:101A800005FB0CFC16EB074642EB174216EB0C4627
:101A900042EB1C456A1854F1000148BF7047B61963
:101AA000524141EB0101A3F10103704795F0000F92
:101AB00037D04FEA11424FEA144721EA024624EA9E
:101AC000074C02FB07F106FB07F70CFB06F402FBD1
:101AD0000CFC14EB074441EB17414FEA154714EB9C
:101AE0000C4441EB1C4125EA074C02FB07F506FBC1
:101AF00007F70CFB06F602FB0CFC16EB074645EB62
:101B0000174516EB0C4645EB1C42121951F100012A
:101B100048BF7047B619524141EB0101A3F10103DF
:101B200070474FEA14454FEA114724EA054621EA77
:101B3000074C05FB07F106FB07F70CFB06F24FF01D
:101B4000000605FB0CFC12EB074241EB174112EBC0
:101B50000C4251EB1C4148BF7047921841EB010108
:101B6000A3F101037047FEE7704772B6FEE700007D
:101B700070B5044600F010F90546601C02D0044818
:101B80000078044400F008F9401BA042FAD370BD6D
:101B90000C0000202DE9F84FDFF8B8910024A9F1DE
:101BA000040B23460F2709F1040AABF1040EC9E028
:101BB0000125A5402A40AA427DD1674ED1F804C034
:101BC000ACEB0608B44532D014DCBCF1030F3AD0BC
:101BD00009DCBCF1000F2AD0BCF1010F1CD0BCF114
:101BE000020F31D11DE0BCF1110F17D0BCF1120F63
:101BF0002AD119E0B8F5881F19D006DCB8F5803F66
:101C000015D0B8F5801F1FD111E0B8F5001F0ED018
:101C1000B8F5041F18D10AE0CB6815E0CB681B1D8E
:101C200012E0CB6808330FE0CB680C330CE08B6814
:101C30002BB1012B4FF0080303D0456104E00423CE
:101C400002E0056100E00023FF2A01D8064601E01A
:101C500000F104064FEA840501D9A5F12005D6F864
:101C6000008007FA05FC28EA0C0803FA05F548EAA3
:101C70000508C6F800804D68ED0062D5374DAE69A5
:101C800046F00106AE61AD6924F0030605F00105DA
:101C90000095334D06EB050CDCF80850A607360F0F
:101CA00007FA06F825EA0805DFF8B880404503D1B1
:101CB0004FF0000817E044E0DFF8AC80404502D167
:101CC0004FF001080FE0DFF8A480404502D14FF04B
:101CD000020808E0DFF89880404502D14FF0030881
:101CE00001E04FF0040808FA06F848EA0508CCF8C5
:101CF00008804D68D9F80060ED024D4601D51643C5
:101D000000E096432E604D68DAF80060AD0255465B
:101D100001D5164300E096432E604D68DBF8006065
:101D2000AD035D4601D5164300E096432E604D6835
:101D3000DEF80060ED03754601D5164300E09643DA
:101D40002E60641C0D682A46E5407FF431AFBDE883
:101D5000F88F00000804014000001110001002403C
:101D60000000014000080140000C0140001001404B
:101D7000001401408068084000D001207047C2680C
:101D800021EA02030A4043EA0241016170470AB1B5
:101D9000016170470904FBE7014880687047000053
:101DA0000C0000200248816802781144816070476D
:101DB0000C000020074810B5016841F010010160D7
:101DC000032000F075F80F2000F006F800F024F86A
:101DD000002010BD0020024070B50D4D04464FF4A8
:101DE0007A712878B1FBF0F00A490968B1FBF0F08C
:101DF00000F06DFC48B9102C07D200222146501E7D
:101E000000F036F800206C6070BD012070BD00004D
:101E10000C000020180000200C4808B5816941F032
:101E200001018161816901F001010091C16941F005
:101E30008051C161C06900F0805000900448416841
:101E400021F0E06141F00071416008BD00100240E6
:101E500000000140002809DB00F01F020121914031
:101E60004009800000F1E020C0F800117047000038
:101E7000F0B40E4B1B680C46C3F30223C3F10705F5
:101E8000042D00D90425191D072901D2002300E0E3
:101E9000DB1E012606FA05F1491E214099409E40AD
:101EA000761E16403143F0BC01F08DBC0CED00E015
:101EB000064900F0070208684FF6FF03184040EAA1
:101EC0000220034A10430860704700000CED00E058
:101ED0000000FA052DE9F0470F46050061D0434E9A
:101EE000306800F00700B84209D2306820F00700DF
:101EF00038433060306800F00700B84251D128689C
:101F00003B4C810712D5400703D5606840F4E06080
:101F100060602878000703D5606840F46050606016
:101F20006068A96820F0F000084360602878C00766
:101F300028D06868012810D02168022810D08907AD
:101F400000292EDA616821F0030101436160FFF787
:101F500023FF804641F288390DE021688903EFE7CD
:101F60008901EDE7FFF718FFA0EB0801494502D909
:101F70000320BDE8F0876068696800F00C00B0EBF2
:101F8000810FEFD1306800F00700B8420BD93068FC
:101F900020F0070038433060306800F00700B84296
:101FA00001D00120E5E72878400705D56068E96899
:101FB00020F4E060084360602878000706D5606878
:101FC000296920F4605040EAC100606000F038F8F0
:101FD0006168084AC1F30311515CC84006490860B2
:101FE00006480068FFF7F8FE0020C2E70020024024
:101FF0000010024070390008180000201000002076
:102000000448054900684968044AC1F30221515C4B
:10201000C8407047180000200010024080390008B6
:102020000448054900684968044AC1F3C221515C6B
:10203000C840704718000020001002408039000896
:102040000E4A51680E4801F00C03042B11D0082BE6
:102050000FD10C48C1F38343C903C05C0AD5516852
:10206000084AC1F34041921E515C054A5043B0FBFF
:10207000F1F07047044948437047000000100240E7
:1020800000127A006039000800093D002DE9F84F80
:10209000040070D02078C04DC00749D06868C0F3F4
:1020A0008100012807D06868C0F38100022809D1A7
:1020B0006868C00306D52868800339D560680028A1
:1020C000E7D035E06068B0F5803F0BD010B1B0F5D7
:1020D000A02F11D0286820F480302860286820F4D0
:1020E000802002E0286840F480302860606890B169
:1020F000FFF752FE06460AE0286840F48020286078
:10210000F0E700BFFFF748FE801B642873D82868FB
:102110008003F7D50CE0FFF73FFE064605E000BF61
:10212000FFF73AFE801B6428F0D828688003F7D4B4
:1021300020789A4E80074FF001094FF0000839D5FA
:10214000686810F00C0F07D06868C0F3810002289F
:1021500009D16868C00306D42868800714D52069AF
:10216000012808D110E02069B0B1C6F80090FFF74F
:1021700013FE074605E00AE1FFF70EFEC01B02282A
:10218000C4D828688007F7D52868616920F0F8006E
:1021900040EAC10028600DE0C6F80080FFF7FCFDB2
:1021A000074604E0FFF7F8FDC01B022823D8286883
:1021B0008007F7D4207800072CD57948A169D9B1D8
:1021C000C0F80090FFF7E8FD074604E0FFF7E4FDE4
:1021D000C01B02280FD8686A8007F7D571484FF4F2
:1021E000FA510068B0FBF1F0009000BF0098411E6A
:1021F0000091FAD20EE080E0C0F80080FFF7CCFD3D
:10220000074604E0FFF7C8FDC01B022875D8686ABE
:102210008007F7D42078400760D5E8690027C00020
:1022200008D4E86940F08050E861E869012700F0CF
:10223000805000905C480168C90513D4016883464A
:1022400041F480710160FFF7A7FD824606E000BF00
:10225000FFF7A2FDA0EB0A0064284ED8DBF80000CF
:10226000C005F5D5E06801280AD008B1052813D0CB
:10227000286A20F001002862286A20F0040002E0A9
:10228000286A40F001002862E06841F2883B98B17A
:10229000FFF782FD82460BE0286A40F004002862C6
:1022A000EEE700BFFFF778FDA0EB0A0159455AD8C9
:1022B000286A8007F6D50CE0FFF76EFD824605E040
:1022C000FFF76AFDA0EB0A0159454CD8286A800740
:1022D000F6D41FB1E86920F08050E861E06988B366
:1022E0006968C1F38101022944D00228C6F86080E0
:1022F00004D0FFF751FD044638E034E0FFF74CFD11
:10230000074604E0FFF748FDC01B02282BD82868C9
:102310008001F7D4206AB0F5803F05D16868A168D4
:1023200020F4003008436860D4E908010843696874
:1023300021F4741108436860C6F86090FFF72CFD23
:10234000044606E025E000BFFFF726FD001B02283B
:1023500009D828688001F7D51BE000BFFFF71CFDF6
:10236000001B022802D90320BDE8F88F28688001ED
:10237000F4D40EE00128F7D06868226A00F48031B6
:10238000914204D1616A00F47010884201D00120AA
:10239000EAE70020E8E700000010024000004242A7
:1023A00080044242180000200070004070B5040014
:1023B00009D0606A002540B125616561A56294F885
:1023C000510040B10CE0012070BD6068B0F5827F23
:1023D000F4D0E561F2E784F85050204600F040F870
:1023E000022084F851002068016821F0400101605A
:1023F000A088218900F4827001F404410843A18976
:1024000001F400610843217C01F002010843217DB1
:1024100001F001010843218B01F400710843217F81
:1024200001F03801084394F8201001F080010843BE
:10243000218D01F40051084321680860A06904213E
:1024400001EA1040216848602068C16921F40061F8
:10245000C1616565012084F85100002070BD000055
:1024600030B585B000240094019402940394006870
:10247000174988422AD11748816941F48051816106
:10248000816901F480510491816941F00801816101
:102490008069114D00F0080004902820009002206F
:1024A00001900320039069462846FFF773FB102034
:1024B000CDE90004694628460294FFF76BFB074804
:1024C000416841F0E06141F00101416005B030BD7B
:1024D0000030014000100240000C014000000140AB
:1024E0002DE9FF4F81B0044690F8500000260E9F62
:1024F0001D4693464FF0010901280FD04FF0010A05
:1025000084F850A0FFF748FC804694F851006168B9
:1025100001280DD0B1F5827F08D103E0022005B07B
:10252000BDE8F08FA16809B9042801D00226C9E0EE
:102530000298002865D0BBF1000FFBD0002DF9D028
:1025400094F85100042802D0052084F8510000209E
:102550006065C4F838B0E587A58702992163E586F0
:10256000A5862064606420680168490603D4016878
:1025700041F040010160E068B0F5006F606803D091
:10258000F0B3012D47D081E008B1012D3CD1206B83
:1025900021680088C860206B801C2063E08E401E8C
:1025A000E08631E02068816889070FD5E18E69B146
:1025B000B9F1010F0AD1216B0988C160206B801C21
:1025C0002063E08E401EE0864FF00009206881689D
:1025D000C9070CD0E18F51B1C068A16B0880A06B16
:1025E000801CA063E08F401EE0874FF00109FFF7D9
:1025F000D3FBA0EB0800B84206D3781C04D001E05E
:1026000009E05BE003265BE0E08E0028CAD1E08FA2
:102610000028C7D140E0206B216800780873206B48
:10262000401C2063E08E401EE0862FE02068816819
:1026300089070FD5E18E69B1B9F1010F0AD1216B7C
:1026400009780173206B401C2063E08E401EE086F9
:102650004FF0000920688168C9070CD0E18F51B1A3
:10266000C068A16B0870A06B401CA063E08F401E87
:10267000E0874FF00109FFF78FFBA0EB0800B8429D
:1026800002D3781C02D0BAE7002FB8D0E08E002821
:10269000CCD1E08F0028C9D142463946204600F00F
:1026A0006EFE18B10126202060650BE0A06818B905
:1026B0002068C16880680090606D08B1012601E063
:1026C00084F851A0002084F85000304627E710B568
:1026D000401EB0F1807F01D3012010BD4FF0E024F7
:1026E00060610F21601701F06EF80020A0610720E3
:1026F0002061002010BD70477047000070B590F851
:102700003C20012A26D0012480F83C40022280F897
:102710003D2003685A689D6822F070060A683243BB
:102720005A600D4B02689A4208D0B2F1804F05D032
:102730000A4B9A4202D00A4B9A4204D1496825F0CA
:1027400080031943916080F83D40002180F83C10DF
:10275000084670BD022070BD002C014000040040FE
:102760000008004010B5040003D094F83D0010B1FB
:1027700007E0012010BD002084F83C00204600F056
:102780001FF8022084F83D00211D206800F0AEFEF5
:10279000012084F8460084F83E0084F83F0084F865
:1027A000400084F8410084F8420084F8430084F833
:1027B000440084F8450084F83D00002010BD00006E
:1027C00008B500680649884208D10648C16941F049
:1027D0000401C161C06900F00400009008BD000060
:1027E000000800400010024070B5044690F83C001C
:1027F0000025012817D0012684F83C60022084F8C7
:102800003D002068826822F0770222F47F428260D5
:102810000868502838D00DDC20284FD005DC90B354
:10282000102811D14AE0022070BD302846D040283F
:102830000AD13BE060282FD070280DD0B0F5805F22
:1028400003D0B0F5005F12D0012584F83D60002070
:1028500084F83C00284670BDCB68D1E9012120688E
:1028600000F087FE2068816841F0770109E0CB68BD
:10287000D1E90121206800F07CFE2068816841F4E4
:1028800080418160E1E719E0CA684968206800F08A
:1028900082FE5021206806E0CA684968206800F07E
:1028A000B7FE6021206800F06EFECEE7CA68496876
:1028B000206800F070FE40212068F4E7226801469D
:1028C0001046F0E770B50068B0F1804F14D1154C98
:1028D000251D2078012810D002280DD10021124892
:1028E00000F021FA686000210F4800F01DF92078FF
:1028F000401C20700120607070BD00210A4800F06B
:1029000012FA2860084801680A6A22F00A020A627C
:102910000068016A41F0020101622078401C2070C9
:1029200070BD000000000020740000202DE9F0417F
:10293000054690F83C0000260C46012810D00120E6
:1029400085F83C0072B1042A1CD0082A2CD00C2A2D
:1029500050D00126002085F83C003046BDE8F081CB
:102960000220FBE7D4E90012E368286800F024FEA7
:102970002868816921F00C01816128688169A26859
:1029800011430FE0D4E90012E368286800F052FE1A
:102990002868816921F44061816128688169A268A1
:1029A00041EA02218161D5E72868D4E9002C277B20
:1029B000036A016A21F480710162C16923F4007322
:1029C00021F0030141EA0C0121F0F00C39074FF42A
:1029D00000774CEA116107EA02221A43C1610262E0
:1029E0002868C16921F00C01C1612868C169A26829
:1029F00011432BE02868D4E90021E768036AD0F886
:102A000020C02CF4805CC0F820C0D0F81CC023F497
:102A100000532CF4407C4CEA012121F4704C4FF619
:102A2000FF7101EA07314FF4005741EA0C0107EA50
:102A300002321A43C16102622868C16921F440610F
:102A4000C1612868C169A26841EA0221C16181E7C8
:102A500010B5040003D094F83D0010B107E0012048
:102A600010BD002084F83C00204600F01FF8022032
:102A700084F83D00211D206800F038FD012084F815
:102A8000460084F83E0084F83F0084F8400084F853
:102A9000410084F8420084F8430084F8440084F83C
:102AA000450084F83D00002010BD000000B585B051
:102AB000002100910191029103910068B0F1804FD3
:102AC0002AD11648C16941F00101C161C16901F013
:102AD00001010491816941F00401816180696946C5
:102AE00000F0040004904FF4004000900220029097
:102AF0000B48FFF74FF80B48416821F4407141F053
:102B0000E06141F480714160002211461C20FFF712
:102B1000AFF91C20FFF79EF905B000BD0010024080
:102B2000000801400000014070B50D0004464FF060
:102B3000000607D0042D0AD0082D0DD00C2D10D082
:102B400001262FE02068C16821F002010DE0206815
:102B5000C16821F0040108E02068C16821F0080183
:102B600003E02068C16821F01001C16000222946FD
:102B7000206800F0F1FC2068016A41F21112114254
:102B800007D1016A9210114203D1016821F00101BD
:102B90000160012045B1042D09D0082D0AD004F8A8
:102BA000410F2071304670BD04F83E0FF9E704F87C
:102BB0003F0FF6E704F8400FF3E770B504460068EE
:102BC00001694FF00005C943890715D4C168C9439D
:102BD000890711D4E91E01610120207720688069EE
:102BE0008007204602D0FFF76DFE04E000F098F861
:102BF000204600F096F8257720680169C943490707
:102C000017D4C168C943490713D46FF004010161A7
:102C1000022020772068806910F4407F204602D08F
:102C2000FFF750FE04E000F07BF8204600F079F852
:102C3000257720680169C943090716D4C168C943CB
:102C4000090712D46FF00801016104202077206881
:102C5000C0698007204602D0FFF734FE04E000F090
:102C60005FF8204600F05DF8257720680169C943C8
:102C7000C90617D4C168C943C90613D46FF010013F
:102C80000161082020772068C06910F4407F204649
:102C900002D0FFF717FE04E000F042F8204600F0F3
:102CA00040F8257720680169C943C90708D1C16880
:102CB000C943C90704D1891E0161204600F032F8DA
:102CC00020680169C943090609D4C168C9430906D6
:102CD00005D46FF0800101612046FFF70CFD2068EC
:102CE0000169C943490609D4C168C943490605D4E5
:102CF0006FF040010161204600F02AF82068016968
:102D0000C94389060BD4C168C943890607D46FF04B
:102D1000200101612046BDE87040FFF7EDBC70BDA9
:102D20007047704770470246002041B1042909D01E
:102D300008290AD00C2901D11068006C704710686E
:102D4000406B70471068806B70471068C06B7047AD
:102D5000704770B5040004D094F84100002510B10C
:102D600006E0012070BD84F84050204600F024F8B1
:102D7000242084F841002068C16821F40051C1601A
:102D8000204600F073FC2068016921F49041016144
:102D90002068416921F02A0141612068C16841F43D
:102DA0000051C1606564202084F8410084F842002D
:102DB0006563002070BD000030B585B0002400942C
:102DC00001940294039400681449884224D1144861
:102DD000816941F480418161816901F480410491FC
:102DE000816941F00401816180690E4D00F00400A9
:102DF00004904FF400700090022001900320039093
:102E000069462846FEF7C6FE2815CDE90004694646
:102E100028460294FEF7BEFE05B030BD00380140E2
:102E200000100240000801402DE9F843044690F8E4
:102E300041001F4616460D46202802D00220BDE85C
:102E4000F8837DB176B100206064212084F84100D0
:102E5000FEF7A2FFA6848046E684A068B0F5805FF6
:102E600002D003E00120EAE7206910B12E460025D8
:102E70000EE000260CE08021204600F053FCA0B9B3
:102E8000AEB116F8010B21684860E08C401EE0846A
:102E9000E08C43464FF0000200970028EBD14FF042
:102EA0004001204600F03EFC30B10320C7E735F872
:102EB000020BC0F30800E6E7202084F84100002060
:102EC000BDE7FEE72DE9F04385B0002438480094C3
:102ED000019402940394816941F010018161816938
:102EE00001F010010491816941F020018161816943
:102EF00001F020010491816941F00401816181693F
:102F000001F004010491816941F008018161806947
:102F1000012200F00800274F550304902946384647
:102F2000FEF735FFDFF89080002240F63E01404674
:102F3000FEF72DFFDFF88490012240214846FEF77E
:102F400026FF002280214846FEF721FF0095022639
:102F500001250396CDE9015469463846FEF71AFE6D
:102F60003E20CDE90005CDE9024669464046FEF720
:102F700011FE40F207108DE8310069464846FEF721
:102F800009FEE802CDE900050320CDE902406946CB
:102F90004046FEF7FFFDC020CDE90005CDE9024621
:102FA00069464846FEF7F6FD05B0BDE8F08300002F
:102FB000001002400010014000080140000C0140D8
:102FC000104810B50E4901604FF482714160002134
:102FD0008160C1604FF400720161C0E905120822EE
:102FE000C0E90721416281620A21C162FFF7DEF96F
:102FF000002803D0BDE81040FEF7B7BD10BD0000AB
:10300000003001401C00002010B586B00024184894
:10301000059404940094019402944FF08041039429
:1030200001600721C0E901144FF6FF71C0E90314E4
:103030008461FFF70DFD08B1FEF797FD049404A924
:103040000B480594FFF75AFB08B1FEF78EFD0120EF
:10305000CDE9004002940022694605480394FFF739
:1030600065FC002801D0FEF780FD06B010BD000011
:103070007400002010B586B0002417480094019415
:103080000294039404941349059401604721C0E914
:1030900001144FF6FF71C0E903148461FFF762FB6E
:1030A00008B1FEF762FD4FF48050009069460A486F
:1030B000FFF79AFB08B1FEF758FD049404A90648EF
:1030C0000594FFF71BFB002801D0FEF74EFD06B06C
:1030D00010BD000000080040BC0000200C4810B5E6
:1030E0000A4901604FF4E1314160002181600C2206
:1030F000C160C0E904128161C161FFF72AFE0028A6
:1031000003D0BDE81040FEF730BD10BD00380140CF
:1031100004010020FEE700000FB4C82110B503AB86
:103120000748029AFDF7A6F8054982B24FF6FF73E9
:10313000A1F14800FFF778FE10BC5DF814FB000019
:103140004C010020FEE700001CB50FA10522D1E9CB
:103150000001CDE900016946302000F0C7F80522E2
:103160006946102000F014F8002069460A5CA52A80
:1031700003D1401CC0B20528F8D3052801D0012096
:103180001CBD00201CBD0000A5A5A5A5A500000034
:103190002DE9F041DFF8408015460F460446002235
:1031A00040214046FEF7F3FD21460C4800F054F95B
:1031B0000646002406E0FF21084800F04DF9385586
:1031C000641CE4B2AC42F6D3012240214046FEF733
:1031D000DEFD3046BDE8F081000C01401C000020FF
:1031E00070B50B4D0446002240212846FEF7CFFD66
:1031F0002146084800F030F9FF21064800F02CF97C
:103200000446012240212846FEF7C1FD204670BD3C
:10321000000C01401C00002010B5194C0022802138
:103220002046FEF7B4FD05221649302000F05EF876
:1032300014490522491D2A2000F058F801212120B7
:1032400000F07EF80121222000F07AF8FF212420EE
:1032500000F076F82821252000F072F80F212620B2
:1032600000F06EF80E21202000F06AF80122802183
:103270002046FEF78CFDBDE810400120FEF778BC2B
:10328000000C01405439000870B5174C0546002267
:1032900080212046FEF77BFD20222946A02000F059
:1032A00025F8012280212046FEF771FDA51529464B
:1032B0002046FEF75FFD0028F9D10720FFF790FFB9
:1032C00004460146272000F03BF8E00605D5FF2123
:1032D000E12000F035F8102070BDA00601D52020B7
:1032E00070BDFF2070BD0000000C01402DE9F041D1
:1032F000DFF8448016460D46044600224021404631
:10330000FEF745FD21460D4800F0A6F807460024CB
:1033100007E000BF15F8011B084800F09DF8641C89
:10332000E4B2B442F6D3012240214046FEF72FFD1D
:103330003846BDE8F0810000000C01401C00002070
:1033400070B50C4D0E460446002240212846FEF77B
:103350001EFD2146084800F07FF804463146064825
:1033600000F07AF8012240212846FEF710FD2046A1
:1033700070BD0000000C01401C000020704738B5F3
:103380000B46009204460022802100F009F8002834
:1033900004D0606D40F020006065032038BD00005F
:1033A0002DE9F8431E46914688460446089DFEF7DF
:1033B000F3FC401B351AFEF7EFFC07462548006872
:1033C000C0F3CB30684338E0701C37D0FEF7E4FC24
:1033D000C01BA84203D215B1009860B32CE020684E
:1033E000416821F0E00141606068B0F5827F0BD157
:1033F000A068B0F5004F02D0B0F5806F04D120680E
:10340000016821F040010160A06AB0F5005F09D1B8
:103410002068016821F4005101602068016841F4CE
:1034200000510160012084F85100002084F8500010
:103430000320BDE8F8830025401E009020688168C5
:1034400038EA010004D000214945BDD10020F0E751
:103450000121F9E7180000203EB5FF248DF808107F
:10346000012301AA02A90094FFF73AF808B18DF8E8
:1034700004409DF804003EBD7047FEF793BC30B594
:103480008FB028216846FCF7FBFF14210AA8FCF73F
:10349000F7FF01210804CDE9001000240294022561
:1034A0000491CDE907504FF4E01009906846FEF70B
:1034B000EDFD08B172B6FEE70F20CDE90A054FF425
:1034C0008060CDE90C4002210AA80E94FEF702FDAF
:1034D000002801D072B6FEE70FB030BD7047000083
:1034E0000148FFF76ABB000074000020F0B50268D5
:1034F000164B174C174D4FF08047984205D0B842F5
:1035000003D0A04201D0A84203D122F070064A683D
:103510003243984205D0B84203D0A04201D0A8421D
:1035200003D122F44074CA6822434C6922F080021D
:10353000224302608A68C2620A688262984201D1AC
:103540000969016301214161F0BD0000002C0140C7
:10355000000400400008004010B501F01F030121E5
:10356000046A99408C430462016A9A4011430162E3
:1035700010BD10B5846842EA032224F47F440A4354
:103580002243826010BD826822F070020A4342F03A
:1035900007018160704710B5036A046A24F00104D2
:1035A0000462846924F0F00444EA021423F00A025D
:1035B0000A438461026210BD70B5056A046A24F092
:1035C0000104046284690F4EB04208D0B0F1804F0C
:1035D00005D00D4EB04202D00C4EB04203D124F0C3
:1035E0000304144301E044F001041A0724F0F0043A
:1035F00044EA126225F00A0301F00A0119438261CC
:10360000016270BD002C0140000400400008004031
:1036100010B5036A046A24F010040462846923F07C
:10362000A00324F4704444EA023243EA01118261A7
:10363000016210BD30B5046A056A25F01005056207
:10364000856925F4407545EA022222F470454FF65B
:10365000FF7202EA033224F0A0032A43A02404EA02
:10366000011119438261016230BD000070B504464A
:1036700000680169E26821F4405111430161216948
:10368000A0680843616908432168CA6841F20C6375
:103690009A430243CA6020684169A26921F44071DB
:1036A000114341611E492068884202D1FEF7B8FCEF
:1036B00001E0FEF7A5FC00EBC00101EB0012606821
:1036C00064218000B2FBF0F3B3FBF1F36FF0180656
:1036D0007343B2FBF0F5B2FBF0F605EB8305322342
:1036E00003EB0515B5FBF1F5B6FBF1F605F0F005BA
:1036F00005EB0615B2FBF0F6B2FBF0F0B0FBF1F013
:103700006FF01802504306EB800003EB0010B0FB93
:10371000F1F0216800F00F002844886070BD0000BF
:10372000003801402DE9F041984617460E46044600
:10373000069D27E0681C25D02DB1FEF72DFBA0EBE0
:103740000800A8421ED920680C3050E8001F21F460
:10375000D07140E80012002AF5D12068143050E8FA
:10376000001F21F0010140E80012002AF5D12020BD
:1037700084F8410084F84200002084F840000320CF
:10378000BDE8F0812068006836EA000004D000201F
:10379000B842CFD00020F3E70120F9E7FEE7490067
:1037A00050EAC12018BF04204A0D18BF40F00100A4
:1037B00040F2FF72B2EB515F08BF40F002000128F7
:1037C00008BF052070470907090E002804DB00F137
:1037D000E02080F80014704700F00F0000F1E020B6
:1037E00080F8141D704730380A2801D20120704734
:1037F000002070470D4900220B685A620A6813685E
:1038000043F00103136009684A6A8242FCD3086AE4
:1038100041F21112104207D1086A9210104203D1EE
:10382000086820F00100086070470000BC0000201C
:1038300088B020216846FCF723FEFEF7BBFAFFF7AD
:103840001EFEFFF73FFBFFF7BBFBFFF747FCFFF751
:10385000DBFBFFF70FFC4FF4FA7405E019A0FFF74C
:103860005BFC2046FEF784F9FFF76EFC0128F5D0DB
:103870001AA0FFF751FCFFF7CFFC0126F4021B4D05
:10388000DFF86C80A70000BF8DF800606846FFF786
:10389000FBFCB420FFF7AEFF012221462846FEF7CD
:1038A00076FA1420FFF7A6FF002221462846FEF7ED
:1038B0006EFA39464046FEF762FAC820FEF758F91C
:1038C000E2E700004E524632344C30315F436865C7
:1038D000636B206661696C0D0A00000053797320E8
:1038E000545844204D6F64650D0A000000080140E3
:1038F0000010014010B500290AD00878002807D030
:1039000005487844FDF720FD002801D0002010BDB7
:103910000248784410BD0000A60100009E0100008E
:1039200010B500290AD00878002807D00548784447
:10393000FDF70AFD002801D0002010BD02487844A0
:1039400010BD0000960100008E010000FCF727BFAB
:10395000FDF742BAB043101001B04310100101024C
:1039600002030405060708090A0B0C0D0E0F1010C0
:10397000000000000000000001020304060708091F
:103980000000000001020304040000080000000021
:103990000000000200010000100000000000000014
:1039A0000000000030313233343536373839414287
:1039B0004344454640305800303132333435363791
:1039C0003839616263646566403078003031323383
:1039D0003435363738396162636465667870003033
:1039E000313233343536373839414243444546580D
:1039F0005000000002400000000000A00000000095
:103A000005400000000000C8000000000C4000005D
:103A10000000409C00000000194000000020BCBED7
:103A20000000000034400000BFC91B8E00000004ED
:103A3000B5400000504BCFD06607E2CF0100000038
:103A40006C4100003E8251AADFEEA7340100000065
:103A5000D9420000DCB5A0E23A301F97FFFFFFFF1C
:103A6000B4450000FD25A0C8E9A3C14FFFFFFFFF3B
:103A7000FF3F00000000008000000000FF3F00004A
:103A80000000008000000000D43B0008000000207F
:103A90001C00000028010008F03B00081C0000206A
:103AA0005C080000440100081C0000004300000006
:103AB000F8FFFFFF0C0000000E0000000F000000E8
:103AC0002E0000001001000043000000F8FFFFFF7F
:103AD0000040404040404040404041414141414021
:103AE00040404040404040404040404040404040D6
:103AF0004005020202020202020202020202020265
:103B00000220202020202020202020020202020269
:103B100002029090909090901010101010101010C1
:103B200010101010101010101010101002020202CD
:103B30000202888888888888080808080808080811
:103B4000080808080808080808080808020202020D
:103B50004000000000000000000000000000000025
:103B60000000000000000000000000000000000055
:103B70000000000000000000000000000000000045
:103B80000000000000000000000000000000000035
:103B90000000000000000000000000000000000025
:103BA0000000000000000000000000000000000015
:103BB0000000000000000000000000000000000005
:103BC00000000000000000000000000000000000F5
:103BD00000000000000000000000000000000000E5
:103BE0000100000010000000000000000024F400AC
:04000005080000ED02
:00000001FF
